S011000068656C6C6F776F726C642E733139A7
S20500000013E7
S20500000100F9
S20500000200F8
S20500000300F7
S20500000413E3
S20500000500F5
S20500000600F4
S20500000700F3
S20500000813DF
S20500000900F1
S20500000A00F0
S20500000B00EF
S20500000C13DB
S20500000D00ED
S20500000E00EC
S20500000F00EB
S20500001013D7
S20500001100E9
S20500001200E8
S20500001300E7
S20500001413D3
S20500001500E5
S20500001600E4
S20500001700E3
S20500001813CF
S20500001900E1
S20500001A00E0
S20500001B00DF
S20500001C13CB
S20500001D00DD
S20500001E00DC
S20500001F00DB
S20500002013C7
S20500002100D9
S20500002200D8
S20500002300D7
S20500002413C3
S20500002500D5
S20500002600D4
S20500002700D3
S20500002813BF
S20500002900D1
S20500002A00D0
S20500002B00CF
S20500002C13BB
S20500002D00CD
S20500002E00CC
S20500002F00CB
S20500003013B7
S20500003100C9
S20500003200C8
S20500003300C7
S20500003413B3
S20500003500C5
S20500003600C4
S20500003700C3
S20500003813AF
S20500003900C1
S20500003A00C0
S20500003B00BF
S20500003C13AB
S20500003D00BD
S20500003E00BC
S20500003F00BB
S20500004013A7
S20500004100B9
S20500004200B8
S20500004300B7
S20500004413A3
S20500004500B5
S20500004600B4
S20500004700B3
S205000048139F
S20500004900B1
S20500004A00B0
S20500004B00AF
S20500004C139B
S20500004D00AD
S20500004E00AC
S20500004F00AB
S2050000501397
S20500005100A9
S20500005200A8
S20500005300A7
S2050000541393
S20500005500A5
S20500005600A4
S20500005700A3
S205000058138F
S20500005900A1
S20500005A00A0
S20500005B009F
S20500005C6F2F
S20500005D009D
S20500005E405C
S20500005F108B
S2050000606F2B
S2050000610099
S2050000628018
S2050000631186
S2050000646F27
S2050000650095
S205000066C0D4
S2050000671281
S2050000686F23
S2050000690091
S20500006A0090
S20500006B147B
S20500006C6F1F
S20500006D008D
S20500006E404C
S20500006F1576
S2050000706F1B
S2050000710089
S2050000720088
S205000073186F
S2050000746F17
S2050000750085
S2050000764044
S205000077166D
S2050000786F13
S2050000790081
S20500007A8000
S20500007B1A65
S20500007C6F0F
S20500007D007D
S20500007EC0BC
S20500007F1863
S2050000806F0B
S2050000810079
S205000082C0B8
S2050000830077
S2050000846F07
S2050000850075
S2050000864034
S2050000871B58
S2050000886F03
S2050000890071
S20500008A80F0
S20500008B1C53
S20500008C73FB
S20500008D105D
S20500008E501C
S20500008F303B
S20500009093D7
S2050000910069
S2050000920068
S2050000930067
S2050000941353
S20500009581E4
S2050000960064
S2050000970063
S20500009893CF
S20500009981E0
S20500009A0060
S20500009B005F
S20500009C134B
S20500009D82DB
S20500009E005C
S20500009F005B
S2050000A093C7
S2050000A182D7
S2050000A20058
S2050000A30057
S2050000A41343
S2050000A583D2
S2050000A60054
S2050000A70053
S2050000A893BF
S2050000A983CE
S2050000AA0050
S2050000AB004F
S2050000AC133B
S2050000AD84C9
S2050000AE004C
S2050000AF004B
S2050000B093B7
S2050000B184C5
S2050000B20048
S2050000B30047
S2050000B41333
S2050000B585C0
S2050000B60044
S2050000B70043
S2050000B893AF
S2050000B985BC
S2050000BA0040
S2050000BB003F
S2050000BC132B
S2050000BD86B7
S2050000BE003C
S2050000BF003B
S2050000C093A7
S2050000C186B3
S2050000C20038
S2050000C30037
S2050000C41323
S2050000C587AE
S2050000C60034
S2050000C70033
S2050000C8939F
S2050000C987AA
S2050000CA0030
S2050000CB002F
S2050000CC131B
S2050000CD88A5
S2050000CE002C
S2050000CF002B
S2050000D09397
S2050000D188A1
S2050000D20028
S2050000D30027
S2050000D41313
S2050000D5899C
S2050000D60024
S2050000D70023
S2050000D8938F
S2050000D98998
S2050000DA0020
S2050000DB001F
S2050000DC130B
S2050000DD8A93
S2050000DE001C
S2050000DF001B
S2050000E09387
S2050000E18A8F
S2050000E20018
S2050000E30017
S2050000E41303
S2050000E58B8A
S2050000E60014
S2050000E70013
S2050000E8937F
S2050000E98B86
S2050000EA0010
S2050000EB000F
S2050000EC13FB
S2050000ED8C81
S2050000EE000C
S2050000EF000B
S2050000F09377
S2050000F18C7D
S2050000F20008
S2050000F30007
S2050000F413F3
S2050000F58D78
S2050000F60004
S2050000F70003
S2050000F8936F
S2050000F98D74
S2050000FA0000
S2050000FB00FF
S2050000FC13EB
S2050000FD8E6F
S2050000FE00FC
S2050000FF00FB
S2050001009366
S2050001018E6A
S20500010200F7
S20500010300F6
S20500010413E2
S2050001058F65
S20500010600F3
S20500010700F2
S205000108935E
S2050001098F61
S20500010A00EF
S20500010B00EE
S20500010C17D6
S20500010D816B
S20500010E10DB
S20500010F00EA
S20500011013D6
S20500011101E7
S20500011241A6
S205000113EFF7
S20500011417CE
S2050001150DD7
S20500011610D3
S20500011700E2
S20500011813CE
S2050001190DD3
S20500011A4D92
S20500011BFDE1
S20500011C9746
S20500011D0DCF
S20500011E10CB
S20500011F00DA
S2050001209346
S2050001218D4B
S205000122CD0A
S205000123FCDA
S2050001246372
S205000125587C
S205000126BD16
S20500012701D1
S20500012823AE
S20500012920B0
S20500012A0DC2
S20500012B00CE
S20500012C13BA
S20500012D0DBF
S20500012E4D7E
S20500012F00CA
S205000130E3E6
S205000131DCEC
S205000132AD1A
S205000133FFC7
S205000134EFD6
S20500013500C4
S20500013600C3
S205000137239F
S20500013813AE
S20500013905BB
S20500013A00BF
S20500013B00BE
S20500013C932A
S20500013D05B7
S20500013E10AB
S20500013F00BA
S205000140EFCA
S20500014100B8
S2050001425067
S2050001434B6B
S20500014413A2
S20500014505AF
S20500014600B3
S20500014700B2
S205000148931E
S20500014905AB
S20500014A00AF
S20500014B00AE
S20500014CEFBE
S20500014D00AC
S20500014E406B
S20500014F2C7E
S2050001501396
S20500015104A4
S20500015205A2
S20500015300A6
S205000154EFB6
S20500015500A4
S2050001569013
S2050001575052
S205000158138E
S205000159059B
S20500015A049B
S20500015B009E
S20500015CEFAE
S20500015D009C
S20500015E108B
S20500015F5743
S2050001601386
S2050001610197
S2050001620196
S205000163FA9C
S2050001642372
S2050001652E66
S2050001661182
S205000167048E
S205000168EFA2
S2050001690090
S20500016A008F
S20500016B107E
S20500016C97F6
S20500016D008C
S20500016E008B
S20500016F008A
S20500017093F6
S2050001718008
S2050001724047
S205000173176F
S2050001746F16
S2050001750084
S205000176D0B3
S205000177453D
S205000178136E
S205000179017F
S20500017A017E
S20500017BFA84
S20500017C235A
S20500017D2E4E
S20500017E116A
S20500017F0476
S205000180EF8A
S2050001810078
S20500018280F7
S2050001830E68
S20500018497DE
S2050001850074
S2050001860073
S2050001870072
S20500018893DE
S20500018980F0
S20500018AC0AF
S20500018B1559
S20500018C6FFE
S20500018D006C
S20500018E90DB
S20500018F4426
S2050001901356
S2050001910167
S2050001920166
S205000193FA6C
S2050001942342
S2050001952E36
S2050001961152
S205000197045E
S205000198EF72
S2050001990060
S20500019A005F
S20500019B0D51
S20500019C97C6
S20500019D005C
S20500019E005B
S20500019F005A
S2050001A093C6
S2050001A180D8
S2050001A24017
S2050001A31442
S2050001A46FE6
S2050001A50054
S2050001A65003
S2050001A7430F
S2050001A8133E
S2050001A9014F
S2050001AA014E
S2050001ABFA54
S2050001AC232A
S2050001AD2E1E
S2050001AE113A
S2050001AF0446
S2050001B0EF5A
S2050001B10048
S2050001B280C7
S2050001B30B3B
S2050001B497AE
S2050001B50044
S2050001B60043
S2050001B70042
S2050001B893AE
S2050001B980C0
S2050001BAC07F
S2050001BB122C
S2050001BC6FCE
S2050001BD003C
S2050001BE102B
S2050001BF42F8
S2050001C01326
S2050001C10137
S2050001C20136
S2050001C3FA3C
S2050001C42312
S2050001C52E06
S2050001C61122
S2050001C7042E
S2050001C8EF42
S2050001C90030
S2050001CA002F
S2050001CB0A24
S2050001CC9796
S2050001CD002C
S2050001CE002B
S2050001CF002A
S2050001D09396
S2050001D180A8
S2050001D240E7
S2050001D31115
S2050001D46FB6
S2050001D50024
S2050001D6D053
S2050001D740E2
S2050001D8130E
S2050001D9011F
S2050001DA011E
S2050001DBFA24
S2050001DC23FA
S2050001DD2EEE
S2050001DE110A
S2050001DF0416
S2050001E0EF2A
S2050001E10018
S2050001E28097
S2050001E3080E
S2050001E4977E
S2050001E50014
S2050001E60013
S2050001E70012
S2050001E8937E
S2050001E98090
S2050001EAC04F
S2050001EB0FFF
S2050001EC6F9E
S2050001ED000C
S2050001EED03B
S2050001EF3FCB
S2050001F013F6
S2050001F10107
S2050001F20106
S2050001F3FA0C
S2050001F423E2
S2050001F52ED6
S2050001F611F2
S2050001F704FE
S2050001F8EF12
S2050001F90000
S2050001FA00FF
S2050001FB07F7
S2050001FC9766
S2050001FD00FC
S2050001FE00FB
S2050001FF00FA
S2050002009365
S2050002018077
S20500020240B6
S2050002030EE7
S2050002046F85
S20500020500F3
S20500020610E2
S2050002073EB3
S20500020813DD
S20500020901EE
S20500020A01ED
S20500020BFAF3
S20500020C23C9
S20500020D2EBD
S20500020E11D9
S20500020F04E5
S205000210EFF9
S20500021100E7
S2050002128066
S20500021305E0
S205000214974D
S20500021500E3
S20500021600E2
S20500021700E1
S205000218934D
S205000219805F
S20500021AC01E
S20500021B0CD1
S20500021C6F6D
S20500021D00DB
S20500021E508A
S20500021F3D9C
S20500022013C5
S20500022101D6
S20500022201D5
S205000223FADB
S20500022423B1
S2050002252EA5
S20500022611C1
S20500022704CD
S205000228EFE1
S20500022900CF
S20500022A00CE
S20500022B04C9
S20500022C9735
S20500022D00CB
S20500022E00CA
S20500022F00C9
S2050002309335
S2050002318047
S2050002324086
S2050002330BBA
S2050002346F55
S20500023500C3
S2050002369032
S2050002373B86
S20500023813AD
S20500023901BE
S20500023A01BD
S20500023BFAC3
S20500023C2399
S20500023D2E8D
S20500023E11A9
S20500023F04B5
S205000240EFC9
S20500024100B7
S2050002428036
S20500024302B3
S205000244971D
S20500024500B3
S20500024600B2
S20500024700B1
S205000248931D
S205000249802F
S20500024AC0EE
S20500024B09A4
S20500024C6F3D
S20500024D00AB
S20500024E802A
S20500024F1E8B
S2050002501395
S20500025101A6
S20500025201A5
S205000253FAAB
S2050002542381
S2050002552E75
S2050002561191
S205000257049D
S205000258EFB1
S205000259009F
S20500025A009E
S20500025B019C
S20500025C9705
S20500025D009B
S20500025E009A
S20500025F0099
S2050002609305
S2050002618017
S2050002624056
S205000263088D
S2050002646F25
S2050002650093
S2050002669002
S205000267266B
S205000268236D
S205000269206F
S20500026A315D
S20500026B008D
S20500026C2369
S20500026D2269
S20500026E4149
S20500026F0089
S2050002702365
S2050002712463
S2050002725135
S2050002730085
S2050002742361
S205000275265D
S2050002766121
S2050002770081
S205000278235D
S2050002792857
S20500027A710D
S20500027B007D
S20500027C2359
S20500027D2A51
S20500027EA1D9
S20500027F0079
S2050002802355
S2050002812C4B
S205000282B1C5
S2050002830075
S2050002842351
S2050002852E45
S205000286C1B1
S2050002870071
S205000288234D
S205000289204F
S20500028AD19D
S20500028B026B
S20500028C2349
S20500028D2249
S20500028EE189
S20500028F0267
S2050002902345
S2050002912443
S205000292F175
S2050002930263
S2050002942341
S205000295263D
S2050002960161
S205000297035E
S205000298233D
S2050002992837
S20500029A114D
S20500029B035A
S20500029C2339
S20500029D2A31
S20500029EC199
S20500029F0356
S2050002A02335
S2050002A12C2B
S2050002A2D185
S2050002A30352
S2050002A42331
S2050002A52E25
S2050002A6E171
S2050002A7034E
S2050002A8232D
S2050002A9202F
S2050002AAF15D
S2050002AB0548
S2050002AC73D9
S2050002AD2E1D
S2050002AE004A
S2050002AF7BCE
S2050002B0F355
S2050002B12E19
S2050002B21036
S2050002B37BCA
S2050002B473D1
S2050002B52F14
S2050002B62022
S2050002B77BC6
S2050002B8231D
S2050002B9221D
S2050002BAC17D
S2050002BB0538
S2050002BC2319
S2050002BD2417
S2050002BED169
S2050002BF0534
S2050002C02315
S2050002C12611
S2050002C2E155
S2050002C30530
S2050002C473C1
S2050002C52E05
S2050002C640F2
S2050002C77BB6
S2050002C8F33D
S2050002C92E01
S2050002CA50DE
S2050002CB7BB2
S2050002CC73B9
S2050002CD2FFC
S2050002CE60CA
S2050002CF7BAE
S2050002D02305
S2050002D128FF
S2050002D2C165
S2050002D30520
S2050002D42301
S2050002D52AF9
S2050002D6D151
S2050002D7051C
S2050002D823FD
S2050002D92CF3
S2050002DAE13D
S2050002DB0518
S2050002DC67B5
S2050002DD809B
S2050002DE001A
S2050002DF0019
S2050002E00315
S2050002E12EE9
S2050002E20115
S2050002E30510
S2050002E48391
S2050002E52EE5
S2050002E641D1
S2050002E7050C
S2050002E8030D
S2050002E92FE0
S2050002EA818D
S2050002EB0508
S2050002EC7399
S2050002ED10FB
S2050002EE4EBC
S2050002EF7B8E
S2050002F07395
S2050002F19077
S2050002F25EA8
S2050002F37B8A
S2050002F47391
S2050002F510F3
S2050002F66F93
S2050002F77B86
S2050002F803FD
S2050002F92ED1
S2050002FA41BD
S2050002FB04F9
S2050002FC8379
S2050002FD2ECD
S2050002FE8179
S2050002FF04F5
S20500030003F4
S2050003012FC7
S205000302C134
S20500030304F0
S2050003047380
S20500030510E2
S2050003060EE3
S2050003077B75
S205000308737C
S205000309905E
S20500030A1ECF
S20500030B7B71
S20500030C7378
S20500030D10DA
S20500030E2FBA
S20500030F7B6D
S2050003108364
S20500031121C5
S20500031201E4
S20500031300E4
S20500031403E0
S20500031522C0
S20500031641A0
S20500031700E0
S205000318835C
S20500031922BC
S20500031A815C
S20500031B00DC
S20500031C03D8
S20500031D23B7
S20500031EC118
S20500031F00D8
S2050003208354
S20500032123B3
S20500032201D4
S20500032301D3
S20500032403D0
S20500032525AD
S2050003264190
S20500032701CF
S205000328834C
S20500032925A9
S20500032A814C
S20500032B01CB
S20500032C03C8
S20500032D26A4
S20500032EC108
S20500032F01C7
S2050003308344
S20500033126A0
S20500033201C4
S20500033302C2
S20500033403C0
S205000335279B
S2050003364180
S20500033702BE
S205000338833C
S2050003392797
S20500033A813C
S20500033B02BA
S20500033C03B8
S20500033D2892
S20500033EC1F8
S20500033F02B6
S2050003408334
S205000341288E
S20500034201B4
S20500034303B1
S20500034403B0
S2050003452E84
S2050003464170
S20500034703AD
S205000348832C
S2050003492E80
S20500034A812C
S20500034B03A9
S20500034C03A8
S20500034D2F7B
S20500034EC1E8
S20500034F03A5
S2050003508324
S2050003512F77
S20500035201A4
S20500035304A0
S2050003548320
S2050003552082
S205000356C1E0
S205000357059B
S205000358138C
S205000359019D
S20500035A019C
S20500035B0696
S20500035C7328
S20500035D009A
S20500035E2079
S20500035F3068
S2050003606730
S2050003618016
S2050003620095
S2050003630094
S2050003641380
S2050003650191
S2050003660190
S205000367FF91
S205000368236C
S205000369246A
S20500036A810C
S20500036B008C
S20500036C2368
S20500036D206A
S20500036E2168
S20500036F0187
S2050003703750
S2050003710482
S2050003721075
S2050003730084
S205000374374C
S2050003750979
S2050003761071
S2050003770080
S20500037893EC
S2050003790777
S20500037A0479
S20500037B007C
S20500037C1368
S20500037D0971
S20500037E0970
S20500037F0078
S2050003803344
S205000381096D
S205000382F97C
S2050003834034
S2050003842350
S205000385264C
S2050003861160
S2050003870070
S205000388234C
S205000389224C
S20500038A91DC
S20500038B006C
S20500038C1358
S20500038D5911
S20500038E2940
S20500038F4028
S2050003906304
S2050003910066
S205000392095C
S2050003930262
S2050003941350
S205000395045E
S205000396045D
S2050003970060
S20500039893CC
S205000399045A
S20500039A005D
S20500039B005C
S20500039C83D8
S20500039D2733
S20500039E0455
S20500039F0058
S2050003A093C4
S2050003A184D2
S2050003A21441
S2050003A30054
S2050003A41340
S2050003A5044E
S2050003A6440D
S2050003A70050
S2050003A8E768
S2050003A980CE
S2050003AA0746
S2050003AB004C
S2050003ACE368
S2050003AD1832
S2050003AE99B0
S2050003AFFE4A
S2050003B03710
S2050003B10442
S2050003B21035
S2050003B30044
S2050003B4370C
S2050003B50939
S2050003B61031
S2050003B70040
S2050003B893AC
S2050003B90737
S2050003BA0439
S2050003BB003C
S2050003BC1328
S2050003BD0931
S2050003BE0930
S2050003BF0038
S2050003C03304
S2050003C1092D
S2050003C2F93C
S2050003C340F4
S2050003C41320
S2050003C559D9
S2050003C62908
S2050003C740F0
S2050003C863CC
S2050003C9002E
S2050003CA0924
S2050003CB022A
S2050003CC1318
S2050003CD0426
S2050003CE0425
S2050003CF0028
S2050003D09394
S2050003D10422
S2050003D20025
S2050003D30024
S2050003D483A0
S2050003D527FB
S2050003D6041D
S2050003D70020
S2050003D8938C
S2050003D9849A
S2050003DA1409
S2050003DB001C
S2050003DC1308
S2050003DD0416
S2050003DE44D5
S2050003DF0018
S2050003E0E730
S2050003E18096
S2050003E2070E
S2050003E30014
S2050003E4E330
S2050003E518FA
S2050003E69978
S2050003E7FE12
S2050003E8838C
S2050003E920EE
S2050003EAC14C
S2050003EB000C
S2050003EC0308
S2050003ED24E6
S2050003EE8188
S2050003EF0008
S2050003F08384
S2050003F124E2
S2050003F241C4
S2050003F30004
S2050003F40300
S2050003F529D9
S2050003F60100
S2050003F70000
S2050003F813EC
S2050003F901FD
S2050003FA01FC
S2050003FB01FB
S2050003FC6794
S2050003FD807A
S2050003FE00F9
S2050003FF00F8
S20500040000F6
S20500040100F5
S20500040200F4
S20500040300F3
S20500040400F2
S20500040500F1
S20500040600F0
S20500040700EF
S20500040800EE
S20500040900ED
S20500040A00EC
S20500040B00EB
S20500040C00EA
S20500040D00E9
S20500040E00E8
S20500040F00E7
S20500041037AF
S20500041105E0
S20500041210D4
S20500041300E3
S20500041413CF
S20500041501E0
S20500041601DF
S205000417FFE0
S20500041813CB
S20500041905D8
S20500041A05D7
S20500041B00DB
S20500041C23B7
S20500041D26B3
S20500041E11C7
S20500041F00D7
S205000420EFE7
S20500042100D5
S2050004229044
S20500042305CE
S205000424834F
S20500042520B1
S205000426C10F
S20500042700CF
S20500042813BB
S20500042905C8
S20500042A00CC
S20500042B00CB
S20500042C13B7
S20500042D01C8
S20500042E01C7
S20500042F01C6
S205000430675F
S2050004318045
S20500043200C4
S20500043300C3
S205000434932F
S20500043505BC
S20500043600C0
S20500043700BF
S20500043803BB
S205000439A617
S20500043A05B7
S20500043B00BB
S20500043C3783
S20500043D05B4
S20500043E10A8
S20500043F00B7
S20500044013A3
S20500044101B4
S20500044201B3
S205000443FFB4
S205000444139F
S20500044505AC
S205000446456B
S20500044701AE
S205000448238B
S2050004492687
S20500044A119B
S20500044B00AB
S20500044CEFBB
S20500044D00A9
S20500044E8028
S20500044F3D6A
S2050004501393
S20500045105A0
S2050004521094
S20500045300A3
S205000454EFB3
S20500045500A1
S2050004569010
S2050004572778
S205000458138B
S205000459019C
S20500045A019B
S20500045BFC9F
S20500045C2377
S20500045D2A6F
S20500045E9107
S20500045F0295
S2050004602373
S2050004612471
S2050004624153
S2050004630390
S205000464236F
S2050004652E63
S205000466117F
S205000467028D
S205000468236B
S2050004692C61
S20500046A810B
S20500046B0289
S20500046C2367
S20500046D2861
S20500046E2167
S20500046F0384
S2050004702363
S205000471265F
S2050004723153
S2050004730380
S205000474235F
S205000475225F
S205000476512F
S205000477037C
S205000478235B
S205000479205D
S20500047A611B
S20500047B0378
S20500047C93E7
S20500047D84F5
S20500047E0672
S20500047F0077
S2050004801363
S2050004810A6B
S205000482076D
S2050004830073
S205000484630F
S2050004850869
S205000486056B
S205000487244B
S205000488135B
S2050004890865
S20500048A0567
S20500048B006B
S20500048C1357
S20500048D0960
S20500048E0662
S20500048F0067
S2050004906303
S205000491065F
S205000492065E
S2050004930063
S205000494134F
S205000495075A
S205000496A0C0
S205000497005F
S20500049863FB
S20500049986D7
S20500049AE577
S20500049B2833
S20500049CA3B7
S20500049D0F4A
S20500049E0157
S20500049F0057
S2050004A01343
S2050004A1074E
S2050004A20054
S2050004A30152
S2050004A4133F
S2050004A50948
S2050004A60050
S2050004A7004F
S2050004A863EB
S2050004A982CB
S2050004AAE567
S2050004AB1239
S2050004AC3713
S2050004AD0643
S2050004AE1038
S2050004AF0047
S2050004B0370F
S2050004B1A79E
S2050004B299AB
S2050004B3192A
S2050004B493AF
S2050004B50938
S2050004B6F14F
S2050004B7013E
S2050004B8132B
S2050004B90637
S2050004BA86B6
S2050004BB0D2E
S2050004BC1327
S2050004BD0732
S2050004BE97A1
S2050004BF999E
S2050004C0B383
S2050004C10530
S2050004C2E84C
S2050004C30231
S2050004C4939F
S2050004C556DB
S2050004C61818
S2050004C7002F
S2050004C8939B
S2050004C957D6
S2050004CA2804
S2050004CB002B
S2050004CCB377
S2050004CD87A2
S2050004CED751
S2050004CF0027
S2050004D01313
S2050004D1D550
S2050004D247DD
S2050004D30023
S2050004D4B36F
S2050004D5879A
S2050004D6A779
S2050004D7001F
S2050004D8130B
S2050004D9D548
S2050004DA8795
S2050004DB001B
S2050004DC9387
S2050004DD58C1
S2050004DE38E0
S2050004DF0017
S2050004E0B363
S2050004E1878E
S2050004E2A76D
S2050004E30013
S2050004E413FF
S2050004E5D53C
S2050004E60709
S2050004E7010E
S2050004E8B35B
S2050004E98588
S2050004EAD537
S2050004EB000B
S2050004ECB357
S2050004ED8584
S2050004EE15F3
S2050004EF0106
S2050004F09373
S2050004F1D530
S2050004F2C53F
S2050004F30102
S2050004F4B34F
S2050004F5877A
S2050004F6A759
S2050004F700FF
S2050004F8936B
S2050004F9D726
S2050004FA37C5
S2050004FB00FB
S2050004FCB347
S2050004FD05F4
S2050004FEB642
S2050004FF00F7
S20500050003F2
S205000501C430
S20500050205EE
S20500050300F2
S205000504935E
S205000505965A
S20500050627C8
S20500050700EE
S205000508B33A
S2050005098666
S20500050AF6F5
S20500050B00EA
S20500050C9356
S20500050D9652
S20500050E16D1
S20500050F00E6
S20500051013D2
S20500051108DC
S205000512687B
S20500051300E2
S20500051433AE
S20500051508D8
S205000516D807
S205000517409E
S20500051813CA
S20500051904D8
S20500051A04D7
S20500051B03D7
S20500051C13C6
S20500051D7464
S20500051EF4E3
S20500051F0FC7
S20500052013C2
S205000521587C
S205000522488B
S20500052300D2
S205000524A32E
S2050005258F41
S2050005268946
S205000527FED0
S205000528339A
S20500052908C4
S20500052AF8D3
S20500052B00CA
S20500052C9336
S20500052D8642
S20500052E09BE
S20500052F00C6
S2050005309332
S205000531893B
S205000532F9CA
S205000533FFC3
S205000534E3DE
S20500053516AA
S20500053608B7
S205000537F8C6
S205000538635A
S20500053900BC
S20500053A09B2
S20500053B02B8
S20500053C6356
S20500053D8236
S20500053E04B3
S20500053F1C9A
S20500054013A2
S205000541763E
S2050005422A89
S20500054300B2
S205000544931E
S20500054505AB
S20500054606A9
S20500054700AE
S205000548634A
S20500054906A6
S20500054A06A5
S20500054B208A
S20500054C1396
S20500054D05A3
S20500054ED0D7
S20500054F02A4
S205000550EFB6
S20500055100A4
S2050005525053
S2050005530F93
S205000554930E
S205000555841C
S205000556F4AB
S205000557FF9F
S205000558633A
S2050005595E3E
S20500055A900B
S20500055B1C7E
S20500055C9306
S20500055D8A0E
S20500055E0493
S20500055F0096
S2050005601382
S205000561761E
S2050005622A69
S2050005630092
S205000564632E
S205000565147C
S205000566048B
S2050005672668
S205000568137A
S2050005693B51
S20500056A1675
S20500056B008A
S20500056C3356
S20500056D0B7D
S20500056E6027
S20500056F4145
S2050005701372
S2050005717B09
S2050005720B78
S205000573FF83
S205000574136E
S2050005757A06
S2050005761A65
S205000577007E
S205000578136A
S2050005790B71
S20500057A0B70
S20500057B0377
S20500057C6316
S20500057D1860
S20500057E0A6D
S20500057F1E58
S20500058093E2
S20500058184F0
S2050005820A69
S2050005830072
S205000584630E
S2050005855A16
S205000586501F
S2050005872945
S20500058893DA
S20500058984E8
S20500058AF477
S20500058BFF6B
S20500058C1356
S20500058D0563
S20500058E0B5C
S20500058F0066
S205000590EF76
S2050005910064
S2050005925013
S2050005930B57
S205000594E37E
S2050005959AC6
S205000596045B
S205000597FE60
S20500059863FA
S2050005991844
S20500059A0457
S20500059B0C4E
S20500059CB3A6
S20500059D84D4
S20500059E2A2D
S20500059F0155
S2050005A083D2
S2050005A12034
S2050005A2C192
S2050005A3034F
S2050005A4034E
S2050005A5242C
S2050005A681CE
S2050005A7034B
S2050005A8034A
S2050005A92923
S2050005AA014A
S2050005AB0347
S2050005AC83C6
S2050005AD291F
S2050005AEC186
S2050005AF0244
S2050005B00342
S2050005B12A1A
S2050005B281C2
S2050005B30240
S2050005B483BE
S2050005B52A16
S2050005B641FE
S2050005B7023C
S2050005B8033A
S2050005B92B11
S2050005BA013A
S2050005BB0238
S2050005BC1326
S2050005BD85B3
S2050005BE0433
S2050005BF0036
S2050005C083B2
S2050005C12410
S2050005C241F2
S2050005C3032F
S2050005C4131E
S2050005C5012F
S2050005C6012E
S2050005C7042A
S2050005C867C6
S2050005C980AC
S2050005CA002B
S2050005CB002A
S2050005CC9396
S2050005CD0622
S2050005CEF136
S2050005CF0125
S2050005D01312
S2050005D1061E
S2050005D29093
S2050005D30022
S2050005D4130E
S2050005D58799
S2050005D667B8
S2050005D7FC22
S2050005D8938A
S2050005D977A5
S2050005DAF823
S2050005DB001A
S2050005DC33E6
S2050005DD0414
S2050005DEF720
S2050005DF0016
S2050005E01302
S2050005E10410
S2050005E2040F
S2050005E3030F
S2050005E413FE
S2050005E5749C
S2050005E6F41B
S2050005E70FFF
S2050005E863AA
S2050005E950BC
S2050005EAF615
S2050005EB0CFE
S2050005ECA366
S2050005ED8F79
S2050005EE8681
S2050005EFFE08
S2050005F013F2
S2050005F158AC
S2050005F248BB
S2050005F30002
S2050005F4936E
S2050005F5867A
S2050005F6F609
S2050005F7FFFF
S2050005F8E31A
S2050005F910EC
S2050005FA08F3
S2050005FBFEFC
S2050005FC9366
S2050005FD05F3
S2050005FE00F7
S2050005FF00F6
S20500060013E1
S205000601767D
S2050006022AC8
S20500060300F1
S20500060413DD
S20500060509E6
S20500060600EE
S20500060700ED
S20500060813D9
S2050006090BE0
S20500060A00EA
S20500060B02E7
S20500060C6385
S20500060D5A8D
S20500060E9056
S20500060F04E1
S2050006109351
S20500061107DC
S20500061200E2
S20500061300E1
S205000614934D
S2050006158758
S20500061617C7
S20500061700DD
S20500061833A9
S2050006198754
S20500061AF6E4
S20500061B00D9
S20500061C03D5
S20500061D4790
S20500061E07CF
S20500061F00D5
S205000620E3F1
S2050006211AB9
S20500062207CB
S205000623FED3
S205000624636D
S205000625C00F
S2050006269737
S20500062712BB
S2050006289339
S20500062904C7
S20500062A06C4
S20500062B00C9
S20500062C6365
S20500062D02C5
S20500062E06C0
S20500062F02C3
S2050006309331
S205000631744F
S2050006321AA8
S20500063300C1
S20500063413AD
S2050006358936
S20500063605B9
S20500063700BD
S2050006386359
S205000639803B
S20500063A04B6
S20500063B18A1
S20500063C9325
S20500063D892E
S20500063E06B0
S20500063F00B5
S20500064013A1
S2050006410BA8
S20500064200B2
S20500064303AE
S205000644931D
S2050006450AA5
S20500064600AE
S20500064700AD
S2050006489319
S20500064904A7
S20500064A00AA
S20500064B00A9
S20500064C6F39
S20500064D00A7
S20500064EC0E6
S20500064F01A4
S2050006501391
S2050006517A29
S2050006521A88
S20500065300A1
S205000654633D
S2050006550C93
S2050006560A94
S2050006571A83
S2050006581389
S2050006590B90
S20500065A009A
S20500065B0297
S20500065C1385
S20500065D890E
S20500065E0591
S20500065F0095
S2050006609301
S205000661890A
S205000662068C
S2050006630091
S20500066493FD
S2050006650A85
S205000666008E
S205000667008D
S2050006683359
S2050006698A01
S20500066A3A50
S20500066B4148
S20500066C1375
S20500066D0A7D
S20500066E1A6C
S20500066F0085
S2050006701371
S205000671057E
S205000672047E
S2050006730081
S205000674B3CD
S2050006758AF5
S2050006764935
S205000677017C
S20500067893E9
S20500067989F2
S20500067A1961
S20500067B0079
S20500067CEF89
S20500067D0077
S20500067E80F6
S20500067F7CF9
S2050006800371
S205000681C4AF
S2050006820969
S2050006830071
S205000684E38D
S2050006851659
S205000686046A
S205000687FE6F
S205000688E389
S2050006895A11
S20500068A90DA
S20500068BF079
S20500068C1355
S20500068D84E3
S20500068E0462
S20500068F0065
S2050006901351
S205000691045F
S205000692F46E
S205000693FF62
S205000694134D
S205000695055A
S2050006960B53
S205000697005D
S205000698EF6D
S205000699005B
S20500069AC09A
S20500069B7ADF
S20500069CE375
S20500069D1A3D
S20500069E0452
S20500069FFE57
S2050006A0B3A1
S2050006A18AC9
S2050006A29AB8
S2050006A30051
S2050006A46FE1
S2050006A5F05F
S2050006A69FAF
S2050006A7EF5E
S2050006A893B9
S2050006A986C5
S2050006AAF654
S2050006ABFF4A
S2050006AC1335
S2050006AD84C3
S2050006AE073F
S2050006AF0342
S2050006B02321
S2050006B180C3
S2050006B286BC
S2050006B30041
S2050006B4132D
S2050006B558E7
S2050006B648F6
S2050006B7003D
S2050006B8E359
S2050006B9102B
S2050006BA0832
S2050006BBF247
S2050006BC93A5
S2050006BD0532
S2050006BE0036
S2050006BF0035
S2050006C01321
S2050006C176BD
S2050006C22A08
S2050006C30031
S2050006C4131D
S2050006C50926
S2050006C6002E
S2050006C7002D
S2050006C81319
S2050006C90B20
S2050006CA002A
S2050006CB0227
S2050006CCE345
S2050006CD42E5
S2050006CE9096
S2050006CFF431
S2050006D06FB5
S2050006D1F033
S2050006D21F03
S2050006D3F928
S2050006D4938D
S2050006D50718
S2050006D6001E
S2050006D7031A
S2050006D823F9
S2050006D9100B
S2050006DAF129
S2050006DB0019
S2050006DC63B5
S2050006DD5ABD
S2050006DED046
S2050006DF0015
S2050006E09381
S2050006E1070C
S2050006E21002
S2050006E30011
S2050006E463AD
S2050006E5907F
S2050006E6F618
S2050006E70A03
S2050006E89379
S2050006E97794
S2050006EA27E3
S2050006EB0009
S2050006EC63A5
S2050006ED8681
S2050006EE07FF
S2050006EF0EF7
S2050006F013F1
S2050006F105FE
S2050006F20002
S2050006F303FE
S2050006F4EF11
S2050006F500FF
S2050006F600FE
S2050006F77588
S2050006F89369
S2050006F904F7
S2050006FA10EA
S2050006FB00F9
S2050006FC6F89
S2050006FDF007
S2050006FE5F97
S2050006FFEA0B
S2050007009360
S20500070107EB
S205000702D021
S20500070302EE
S205000704935C
S2050007058668
S205000706E607
S205000707FFED
S205000708A348
S2050007098F5B
S20500070AF9F0
S20500070BFEEA
S20500070C9354
S20500070D895D
S20500070E06DF
S20500070F00E4
S20500071013D0
S20500071104DE
S205000712D011
S20500071302DE
S20500071413CC
S20500071509D5
S20500071600DD
S20500071700DC
S20500071813C8
S2050007190BCF
S20500071A00D9
S20500071B02D6
S20500071C9344
S20500071D0ACC
S20500071E00D5
S20500071F00D4
S2050007206F64
S205000721F0E2
S2050007229F32
S205000723F4DC
S205000724636C
S2050007254E80
S20500072605C8
S20500072708C4
S205000728A328
S2050007290FBB
S20500072A01C8
S20500072B00C8
S20500072C13B4
S20500072D09BD
S20500072E00C5
S20500072F00C4
S2050007306F54
S205000731F0D2
S205000732DFE2
S205000733D7E9
S20500073413AC
S2050007350BB3
S20500073600BD
S20500073702BA
S2050007389328
S2050007390AB0
S20500073A00B9
S20500073B00B8
S20500073CE3D4
S20500073D16A0
S20500073E04B1
S20500073FF2C2
S2050007406F44
S205000741F0C2
S205000742DFD2
S205000743E5CB
S205000744B3FC
S2050007458A24
S205000746F4B9
S205000747406C
S2050007481398
S2050007498921
S20500074A05A4
S20500074B00A8
S20500074C9314
S20500074D891D
S20500074E069F
S20500074F00A4
S2050007506F34
S205000751F0B2
S2050007529F02
S205000753E1BF
S205000754930C
S2050007550797
S205000756D0CD
S205000757029A
S205000758A3F8
S2050007598F0B
S20500075AF9A0
S20500075BFE9A
S20500075C9304
S20500075D8610
S20500075EE6AF
S20500075FFF95
S2050007601380
S205000761048E
S205000762D0C1
S205000763028E
S205000764E3AC
S2050007654648
S20500076690FD
S205000767EAA2
S2050007686F1C
S205000769F09A
S20500076A5F2A
S20500076BFA8E
S20500076C6324
S20500076D0C7A
S20500076E0481
S20500076F067E
S20500077093F0
S205000771057D
S2050007720978
S2050007730080
S20500077493EC
S20500077586F8
S2050007760974
S205000777007C
S20500077893E8
S20500077984F6
S20500077A0A6F
S20500077B0078
S20500077C1364
S20500077D89ED
S20500077E0570
S20500077F0074
S2050007806F04
S205000781F082
S2050007821F52
S205000783EE82
S205000784135C
S2050007851955
S2050007863736
S205000787006C
S2050007881358
S20500078979F1
S20500078A0960
S20500078B0167
S20500078C1354
S20500078D7AEC
S20500078E174E
S20500078F0064
S2050007901350
S20500079184DE
S205000792F66B
S205000793FF61
S205000794134C
S2050007950955
S2050007960954
S205000797025A
S20500079863F8
S2050007991C3E
S20500079A0A4F
S20500079B0454
S20500079C1344
S20500079D0452
S20500079EF461
S20500079FFF55
S2050007A01340
S2050007A1054D
S2050007A20948
S2050007A30050
S2050007A4EF60
S2050007A5004E
S2050007A6004D
S2050007A76AE2
S2050007A8E368
S2050007A91A30
S2050007AA0445
S2050007ABFE4A
S2050007AC1334
S2050007AD0541
S2050007AE0045
S2050007AF0341
S2050007B0EF54
S2050007B10042
S2050007B24001
S2050007B369D7
S2050007B46FD0
S2050007B5F04E
S2050007B6DF5E
S2050007B7DE5E
S2050007B81328
S2050007B90B2F
S2050007BA0039
S2050007BB0335
S2050007BC6FC8
S2050007BDF046
S2050007BE5FD6
S2050007BFEA4A
S2050007C03300
S2050007C1082A
S2050007C2A091
S2050007C340F0
S2050007C4A38C
S2050007C50F1F
S2050007C6012C
S2050007C7002C
S2050007C86FBC
S2050007C9F03A
S2050007CA5FCA
S2050007CBCE5A
S2050007CC9394
S2050007CD0521
S2050007CE091C
S2050007CF0024
S2050007D09390
S2050007D1869C
S2050007D20918
S2050007D30020
S2050007D46FB0
S2050007D5F02E
S2050007D6DF3E
S2050007D7E339
S2050007D89388
S2050007D974A6
S2050007DA1702
S2050007DB0018
S2050007DCE334
S2050007DD8A8C
S2050007DE0411
S2050007DFF024
S2050007E06FA4
S2050007E1F022
S2050007E2DF32
S2050007E3FC14
S2050007E4937C
S2050007E5848A
S2050007E60A03
S2050007E7000C
S2050007E89378
S2050007E90A00
S2050007EA0009
S2050007EB0008
S2050007EC6F98
S2050007EDF016
S2050007EEDF26
S2050007EFE91B
S2050007F013F0
S2050007F105FD
S2050007F20001
S2050007F303FD
S2050007F4EF10
S2050007F500FE
S2050007F600FD
S2050007F76597
S2050007F813E8
S2050007F904F6
S2050007FAF405
S2050007FBFFF9
S2050007FC13E4
S2050007FD05F1
S2050007FE09EC
S2050007FF00F4
S205000800EF03
S20500080100F1
S20500080240B0
S205000803648B
S205000804E30B
S2050008051AD3
S20500080604E8
S205000807FEED
S2050008086F7B
S205000809F0F9
S20500080A9F49
S20500080BD90E
S20500080C13D3
S20500080D895C
S20500080E05DF
S20500080F00E3
S20500081013CF
S2050008110BD6
S20500081200E0
S20500081302DD
S2050008146F6F
S205000815F0ED
S205000816DFFD
S205000817E4F7
S2050008189347
S2050008190ACF
S20500081A00D8
S20500081B00D7
S20500081CE3F3
S20500081D16BF
S20500081E04D0
S20500081FE4EF
S2050008206F63
S205000821F0E1
S205000822DFF1
S205000823D7F8
S20500082413BB
S20500082501CC
S20500082601CB
S205000827F8D3
S20500082823A7
S2050008292C9D
S20500082A8147
S20500082B04C3
S20500082C23A3
S20500082D269F
S20500082E3193
S20500082F05BE
S205000830239F
S205000831249D
S205000832417F
S20500083305BA
S205000834239B
S2050008352E8F
S20500083611AB
S20500083704B7
S2050008382397
S2050008392A8F
S20500083A9127
S20500083B04B3
S20500083C2393
S20500083D288D
S20500083E2193
S20500083F05AE
S205000840238F
S205000841228F
S205000842515F
S20500084305AA
S205000844238B
S205000845208D
S205000846614B
S20500084705A6
S2050008482387
S2050008492E7B
S20500084A7137
S20500084B03A4
S20500084C2383
S20500084D2C79
S20500084E8123
S20500084F03A0
S205000850237F
S2050008512A77
S205000852910F
S205000853039C
S205000854237B
S2050008552875
S205000856A1FB
S2050008570398
S2050008582377
S2050008592673
S20500085AB1E7
S20500085B0394
S20500085C2373
S20500085D2273
S20500085EB1E3
S20500085F068D
S205000860236F
S205000861246D
S205000862C1CF
S2050008630689
S205000864236B
S2050008652667
S205000866D1BB
S2050008670685
S2050008682367
S2050008692861
S20500086AE1A7
S20500086B0681
S20500086C2363
S20500086D2A5B
S20500086EF193
S20500086F067D
S205000870235F
S2050008712C55
S205000872017F
S2050008730778
S205000874235B
S2050008752E4F
S205000876116B
S2050008770774
S2050008781367
S2050008790A6F
S20500087A0573
S20500087B0077
S20500087C0373
S20500087D4530
S20500087E056F
S20500087F0073
S20500088093DF
S2050008810968
S205000882412F
S2050008830669
S205000884234B
S2050008852E3F
S205000886313B
S205000887016A
S2050008881357
S2050008890465
S20500088A0068
S20500088B0067
S20500088C6303
S20500088D0065
S20500088E055F
S20500088F045F
S205000890B7AB
S2050008910B56
S2050008921050
S205000893005F
S205000894B7A7
S2050008950A53
S205000896104C
S205000897005B
S20500089893C7
S20500089987D2
S20500089ACB8D
S20500089B0453
S20500089C1343
S20500089D094C
S20500089E5004
S20500089F0251
S2050008A0133F
S2050008A10B46
S2050008A2D080
S2050008A3024D
S2050008A493BB
S2050008A50449
S2050008A6004C
S2050008A70348
S2050008A893B7
S2050008A98ABF
S2050008AA4AFE
S2050008AB0542
S2050008AC2323
S2050008AD261F
S2050008AEF153
S2050008AF0043
S2050008B063DF
S2050008B10E33
S2050008B2251B
S2050008B3053A
S2050008B4EF4F
S2050008B5003D
S2050008B6003C
S2050008B759E2
S2050008B81327
S2050008B90435
S2050008BA1424
S2050008BB0037
S2050008BC1323
S2050008BD0C29
S2050008BE0A2A
S2050008BF0033
S2050008C0032F
S2050008C145EC
S2050008C21C14
S2050008C3002F
S2050008C4131B
S2050008C50A23
S2050008C61C10
S2050008C7002B
S2050008C8E347
S2050008C91415
S2050008CA0523
S2050008CBFE29
S2050008CC83A3
S2050008CD2005
S2050008CEC163
S2050008CF051E
S2050008D0130F
S2050008D1051C
S2050008D2041C
S2050008D3001F
S2050008D4031B
S2050008D524F9
S2050008D6819B
S2050008D70516
S2050008D88397
S2050008D924F5
S2050008DA41D7
S2050008DB0512
S2050008DC0313
S2050008DD29EC
S2050008DE0113
S2050008DF050E
S2050008E0838F
S2050008E129E8
S2050008E2C14F
S2050008E3040B
S2050008E4030B
S2050008E52AE3
S2050008E6818B
S2050008E70407
S2050008E88387
S2050008E92ADF
S2050008EA41C7
S2050008EB0403
S2050008EC0303
S2050008ED2BDA
S2050008EE0103
S2050008EF04FF
S2050008F0837F
S2050008F12BD6
S2050008F2C13F
S2050008F303FC
S2050008F403FB
S2050008F52CD1
S2050008F6817B
S2050008F703F8
S2050008F88377
S2050008F92CCD
S2050008FA41B7
S2050008FB03F4
S2050008FC03F3
S2050008FD2DC8
S2050008FE01F3
S2050008FF03F0
S205000900836E
S2050009012DC3
S205000902C12E
S20500090302EC
S20500090413DA
S20500090501EB
S20500090601EA
S20500090708E2
S2050009086782
S2050009098068
S20500090A00E7
S20500090B00E6
S20500090C03E2
S20500090D459F
S20500090E1AC9
S20500090F00E2
S205000910E3FE
S2050009110ED2
S20500091205DA
S205000913FAE4
S20500091413CA
S2050009150CD0
S2050009161AC1
S20500091700DA
S2050009186376
S20500091900D8
S20500091A25B2
S20500091B0BCB
S20500091C13C2
S20500091D07CD
S20500091E00D3
S20500091F00D2
S205000920636E
S20500092100D0
S205000922656A
S20500092309C5
S205000924636A
S20500092516B6
S2050009269536
S20500092708C2
S20500092803C6
S2050009294583
S20500092A1CAB
S20500092B00C6
S20500092C13B2
S20500092D675D
S20500092E279C
S20500092F00C2
S20500093013AE
S2050009310CB4
S2050009321CA3
S20500093300BE
S205000934E3DA
S2050009350AB2
S2050009369526
S205000937FEBC
S20500093813A6
S2050009390AAE
S20500093A2097
S20500093B00B6
S20500093C9322
S20500093D06AE
S20500093E05AE
S20500093FFDB5
S205000940139E
S205000941F6BA
S205000942F6B9
S2050009430F9F
S205000944931A
S20500094507A5
S205000946901B
S20500094700AA
S2050009489316
S2050009490C9C
S20500094A00A7
S20500094B00A6
S20500094C6342
S20500094DE6BE
S20500094EC7DC
S20500094F02A0
S205000950138E
S205000951069A
S205000952900F
S205000953009E
S205000954039A
S2050009554557
S2050009561C7F
S205000957009A
S2050009589306
S2050009599701
S20500095A2C6B
S20500095B0096
S20500095CB3E2
S20500095D870D
S20500095E97FC
S20500095F0191
S20500096093FE
S20500096197F9
S2050009621778
S205000963008E
S205000964B3DA
S2050009658C00
S205000966F695
S205000967008A
S20500096893F6
S2050009690682
S20500096A0582
S20500096BFD89
S20500096C93F2
S20500096DF78D
S20500096EF68D
S20500096F0F73
S205000970136E
S2050009710C74
S2050009721C63
S205000973007E
S205000974E39A
S205000975700C
S205000976F685
S205000977FE7C
S20500097893E6
S2050009790771
S20500097A3047
S20500097B076F
S20500097C6312
S20500097D086C
S20500097EF57E
S20500097F0E64
S205000980135E
S205000981056B
S20500098285EA
S205000983FA74
S205000984135A
S20500098575F7
S205000986F576
S2050009870F5B
S20500098893D6
S2050009890761
S20500098A0067
S20500098B0264
S20500098CE382
S20500098DEA7A
S20500098EA7BC
S20500098FF270
S205000990134E
S205000991154B
S205000992253A
S205000993005E
S205000994332A
S2050009950557
S2050009965506
S2050009970159
S20500099883D6
S2050009992731
S20500099A0552
S20500099B0056
S20500099C67EE
S20500099D80D4
S20500099E074C
S20500099F0052
S2050009A0034E
S2050009A1450B
S2050009A22A25
S2050009A3004E
S2050009A4133A
S2050009A50C40
S2050009A62A21
S2050009A7004A
S2050009A81336
S2050009A90741
S2050009AA1037
S2050009AB0046
S2050009ACE362
S2050009AD0E36
S2050009AE95AE
S2050009AFF64C
S2050009B0132E
S2050009B10A36
S2050009B2003F
S2050009B3003E
S2050009B46FCE
S2050009B5F04C
S2050009B69F9C
S2050009B7F842
S2050009B81326
S2050009B90A2E
S2050009BA0C2B
S2050009BB0036
S2050009BC6FC6
S2050009BDF044
S2050009BE9F94
S2050009BFEF43
S2050009C0032E
S2050009C1A58B
S2050009C20926
S2050009C3002E
S2050009C4939A
S2050009C50725
S2050009C6101B
S2050009C70624
S2050009C89396
S2050009C986A2
S2050009CA0C1B
S2050009CB0026
S2050009CC1312
S2050009CD061E
S2050009CE0023
S2050009CF0022
S2050009D0938E
S2050009D1051B
S2050009D2001F
S2050009D3011D
S2050009D4EF2E
S2050009D5F02C
S2050009D65FBC
S2050009D7A872
S2050009D89386
S2050009D9898F
S2050009DA49CE
S2050009DB0016
S2050009DC33E2
S2050009DD0410
S2050009DEA46F
S2050009DF0012
S2050009E06FA2
S2050009E1F020
S2050009E21FF0
S2050009E3EE20
S2050009E4030A
S2050009E5A567
S2050009E60902
S2050009E7000A
S2050009E89376
S2050009E90701
S2050009EA10F7
S2050009EB0600
S2050009EC9372
S2050009ED867E
S2050009EE0CF7
S2050009EF0002
S2050009F013EE
S2050009F106FA
S2050009F200FF
S2050009F300FE
S2050009F4936A
S2050009F505F7
S2050009F6A05B
S2050009F700FA
S2050009F8EF0A
S2050009F9F008
S2050009FA1FD8
S2050009FBA650
S2050009FC9362
S2050009FD896B
S2050009FE49AA
S2050009FF00F2
S205000A0033BD
S205000A0104EB
S205000A02A44A
S205000A0300ED
S205000A046F7D
S205000A05F0FB
S205000A06DF0B
S205000A07EBFE
S205000A0803E5
S205000A09A542
S205000A0A09DD
S205000A0B00E5
S205000A0C9351
S205000A0D07DC
S205000A0E10D2
S205000A0F06DB
S205000A10934D
S205000A118659
S205000A120CD2
S205000A1300DD
S205000A1413C9
S205000A1506D5
S205000A1610CA
S205000A1700D9
S205000A189345
S205000A1905D2
S205000A1AA036
S205000A1B00D5
S205000A1CEFE5
S205000A1DF0E3
S205000A1EDFF3
S205000A1FA32E
S205000A20933D
S205000A218946
S205000A224985
S205000A2300CD
S205000A243399
S205000A2504C7
S205000A26A426
S205000A2700C9
S205000A286F59
S205000A29F0D7
S205000A2A9F27
S205000A2BE9DC
S205000A2C03C1
S205000A2DCDF6
S205000A2E09B9
S205000A2F00C1
S205000A30932D
S205000A318936
S205000A324975
S205000A3300BD
S205000A346359
S205000A358239
S205000A360CAE
S205000A370CAD
S205000A386355
S205000A390EA9
S205000A3A0DA9
S205000A3B12A3
S205000A3C9321
S205000A3D07AC
S205000A3E10A2
S205000A3F00B1
S205000A40634D
S205000A419817
S205000A42FCB2
S205000A43129B
S205000A449319
S205000A457D2E
S205000A461793
S205000A4700A9
S205000A486345
S205000A491691
S205000A4A0A9C
S205000A4B1A8B
S205000A4C6341
S205000A4D8C17
S205000A4E0D95
S205000A4F2081
S205000A50138D
S205000A51059A
S205000A520D91
S205000A53009D
S205000A54EFAD
S205000A55009B
S205000A56009A
S205000A573F5A
S205000A583365
S205000A590493
S205000A5AB4E2
S205000A5B0194
S205000A5C6F25
S205000A5DF0A3
S205000A5E5F33
S205000A5FE6AB
S205000A60038D
S205000A61A5EA
S205000A620985
S205000A63008D
S205000A6493F9
S205000A650784
S205000A66107A
S205000A670485
S205000A686F19
S205000A69F097
S205000A6A1F67
S205000A6BF68F
S205000A6C8301
S205000A6DABD8
S205000A6E0979
S205000A6F0081
S205000A7093ED
S205000A7189F6
S205000A724935
S205000A73007D
S205000A746319
S205000A7588F3
S205000A760B6F
S205000A770C6D
S205000A780375
S205000A79C5B2
S205000A7A0B6B
S205000A7B0075
S205000A7C6311
S205000A7D82F1
S205000A7E0C66
S205000A7F0E63
S205000A80630D
S205000A810E61
S205000A820569
S205000A831855
S205000A841359
S205000A850D5E
S205000A86006A
S205000A870069
S205000A881355
S205000A890D5A
S205000A8A1D49
S205000A8B0065
S205000A8CB3B1
S205000A8D86DD
S205000A8EABB7
S205000A8F0160
S205000A9083DD
S205000A91C699
S205000A920658
S205000A93005D
S205000A94E379
S205000A959AC1
S205000A960654
S205000A97FE5B
S205000A9863F5
S205000A994C0B
S205000A9A9DB9
S205000A9B074E
S205000A9C93C1
S205000A9D7CD7
S205000A9E173B
S205000A9F0051
S205000AA063ED
S205000AA10A45
S205000AA20A44
S205000AA3123B
S205000AA463E9
S205000AA59CAF
S205000AA60C3E
S205000AA71435
S205000AA81335
S205000AA90D3A
S205000AAA0046
S205000AAB0045
S205000AAC93B1
S205000AAD0D36
S205000AAE0042
S205000AAF033E
S205000AB0033D
S205000AB1C57A
S205000AB20B33
S205000AB3003D
S205000AB463D9
S205000AB50A31
S205000AB60535
S205000AB71821
S205000AB81325
S205000AB90D2A
S205000ABA1D19
S205000ABB0035
S205000ABC3301
S205000ABD0D26
S205000ABE7DB5
S205000ABF41F0
S205000AC033FD
S205000AC18AA5
S205000AC2AB83
S205000AC3012C
S205000AC4EF3D
S205000AC5002B
S205000AC6002A
S205000AC738F1
S205000AC80325
S205000AC9C562
S205000ACA1B0B
S205000ACB0025
S205000ACC9391
S205000ACD8B98
S205000ACE1B07
S205000ACF0021
S205000AD0E33D
S205000AD11807
S205000AD20519
S205000AD3FE1F
S205000AD463B9
S205000AD55CBF
S205000AD6908A
S205000AD71108
S205000AD81305
S205000AD98D8A
S205000ADA0C0A
S205000ADB0015
S205000ADC1301
S205000ADD0D06
S205000ADEFD15
S205000ADFFF12
S205000AE013FD
S205000AE1858A
S205000AE20D01
S205000AE3000D
S205000AE4EF1D
S205000AE5000B
S205000AE6000A
S205000AE736D3
S205000AE8E325
S205000AE91AED
S205000AEA0DF9
S205000AEBFE07
S205000AECB351
S205000AED0CF7
S205000AEE9A68
S205000AEF0100
S205000AF033CD
S205000AF104FB
S205000AF2946A
S205000AF301FC
S205000AF46F8D
S205000AF5F00B
S205000AF6DF1B
S205000AF7DC1D
S205000AF8E315
S205000AF904F3
S205000AFA0DE9
S205000AFBDC19
S205000AFC13E1
S205000AFD05EE
S205000AFE0DE5
S205000AFF00F1
S205000B00935C
S205000B010DE1
S205000B0210DD
S205000B0300EC
S205000B04EFFC
S205000B0500EA
S205000B0600E9
S205000B0734B4
S205000B0833B4
S205000B0904E2
S205000B0AB431
S205000B0B01E3
S205000B0C6F74
S205000B0DF0F2
S205000B0E5F82
S205000B0FDB05
S205000B1033AC
S205000B118D51
S205000B12AC31
S205000B13419B
S205000B14B328
S205000B153D9D
S205000B164099
S205000B1701D7
S205000B189344
S205000B199D39
S205000B1A4D88
S205000B1B00D4
S205000B1C13C0
S205000B1D775B
S205000B1E17BA
S205000B1F00D0
S205000B20933C
S205000B218D41
S205000B220DC0
S205000B2302CA
S205000B246368
S205000B2510BA
S205000B2607C2
S205000B2710B8
S205000B289334
S205000B290CBA
S205000B2A0DB8
S205000B2B00C4
S205000B2C6360
S205000B2D5270
S205000B2EA021
S205000B2F15AB
S205000B30932C
S205000B318C32
S205000B32FCC1
S205000B33FFBD
S205000B3413A8
S205000B358535
S205000B360DAC
S205000B3700B8
S205000B38EFC8
S205000B3900B6
S205000B3AC0F5
S205000B3B3084
S205000B3CE3D0
S205000B3D9A18
S205000B3E0CA5
S205000B3FFEB2
S205000B406F40
S205000B41F0BE
S205000B421F8E
S205000B43F7B5
S205000B448328
S205000B452783
S205000B46C1E8
S205000B4700A8
S205000B489314
S205000B498B1B
S205000B4A079E
S205000B4B00A4
S205000B4CE3C0
S205000B4D9C06
S205000B4E0C95
S205000B4FF2AE
S205000B50138C
S205000B510D91
S205000B52009D
S205000B53009C
S205000B549308
S205000B550D8D
S205000B560099
S205000B570296
S205000B581384
S205000B590591
S205000B5A8015
S205000B5B0292
S205000B5C6F24
S205000B5DF0A2
S205000B5EDFB2
S205000B5FF59B
S205000B60137C
S205000B610D81
S205000B62008D
S205000B63008C
S205000B6493F8
S205000B650D7D
S205000B660089
S205000B670286
S205000B68E3A4
S205000B69186E
S205000B6A0580
S205000B6BF490
S205000B6C6F14
S205000B6DF092
S205000B6E5F22
S205000B6FD5AB
S205000B7093EC
S205000B718CF2
S205000B72FC81
S205000B73FF7D
S205000B743348
S205000B753A40
S205000B764039
S205000B770177
S205000B781364
S205000B791A5C
S205000B7A4A2B
S205000B7B0074
S205000B7C93E0
S205000B7D7DF5
S205000B7E175A
S205000B7F0070
S205000B80135C
S205000B810A64
S205000B820A63
S205000B83026A
S205000B8493D8
S205000B858BDF
S205000B860C5D
S205000B870068
S205000B886304
S205000B899ACC
S205000B8A0D58
S205000B8B0A5A
S205000B8C93D0
S205000B8D8BD7
S205000B8EFB66
S205000B8FFF61
S205000B90134C
S205000B910559
S205000B920A53
S205000B93005C
S205000B94EF6C
S205000B95005A
S205000B960059
S205000B972B2D
S205000B98E374
S205000B999ABC
S205000B9A0B4A
S205000B9BFE56
S205000B9C63F0
S205000B9D0A48
S205000B9E0D44
S205000B9F0A46
S205000BA093BC
S205000BA18DC1
S205000BA21C31
S205000BA3004C
S205000BA493B8
S205000BA50C3E
S205000BA60049
S205000BA70048
S205000BA81334
S205000BA90541
S205000BAA0D38
S205000BAB0044
S205000BACEF54
S205000BAD0042
S205000BAE80C1
S205000BAF2917
S205000BB0E35C
S205000BB184BA
S205000BB20C31
S205000BB3EA52
S205000BB41328
S205000BB58DAD
S205000BB60C2D
S205000BB70038
S205000BB81324
S205000BB90D29
S205000BBAFD38
S205000BBBFF35
S205000BBC1320
S205000BBD052D
S205000BBE0A27
S205000BBF0030
S205000BC0EF40
S205000BC1002E
S205000BC240ED
S205000BC32804
S205000BC4E348
S205000BC51A10
S205000BC60D1C
S205000BC7FE2A
S205000BC833F4
S205000BC9879F
S205000BCABC69
S205000BCB0123
S205000BCC33F0
S205000BCD041E
S205000BCEE43D
S205000BCF0020
S205000BD06FB0
S205000BD1F02E
S205000BD21FFE
S205000BD3CF4D
S205000BD463B8
S205000BD58298
S205000BD60C0D
S205000BD70810
S205000BD80314
S205000BD9C551
S205000BDA0B0A
S205000BDB0014
S205000BDC1300
S205000BDD0D05
S205000BDE0011
S205000BDF0010
S205000BE0937C
S205000BE10C02
S205000BE2000D
S205000BE3000C
S205000BE49378
S205000BE50DFD
S205000BE60009
S205000BE70206
S205000BE8E324
S205000BE918EE
S205000BEA0500
S205000BEBEC18
S205000BEC33D0
S205000BED04FE
S205000BEE44BD
S205000BEF01FF
S205000BF06F90
S205000BF1F00E
S205000BF21FDE
S205000BF3CD2F
S205000BF4E318
S205000BF58476
S205000BF60DEC
S205000BF7F008
S205000BF86F88
S205000BF9F006
S205000BFA9F56
S205000BFBE50F
S205000BFC03F0
S205000BFDC52D
S205000BFE0BE6
S205000BFF00F0
S205000C00935B
S205000C010DE0
S205000C0200EC
S205000C0303E8
S205000C0413D7
S205000C050DDC
S205000C0600E8
S205000C0700E7
S205000C089353
S205000C090CD9
S205000C0A00E4
S205000C0B00E3
S205000C0C13CF
S205000C0D0AD7
S205000C0E00E0
S205000C0F00DF
S205000C10E3FB
S205000C1114C9
S205000C1205D7
S205000C13EAF1
S205000C1433A7
S205000C1504D5
S205000C164494
S205000C1701D6
S205000C186F67
S205000C19F0E5
S205000C1A9F35
S205000C1BCA09
S205000C1C13BF
S205000C1D8D44
S205000C1E0CC4
S205000C1F00CF
S205000C206F5F
S205000C21F0DD
S205000C225F6D
S205000C23EFDC
S205000C2403C7
S205000C25C504
S205000C260BBD
S205000C2700C7
S205000C289333
S205000C290CB9
S205000C2A0DB7
S205000C2B00C3
S205000C2C13AF
S205000C2D0DB4
S205000C2E00C0
S205000C2F00BF
S205000C30E3DB
S205000C3114A9
S205000C3205B7
S205000C33E8D3
S205000C3413A7
S205000C350AAF
S205000C3600B8
S205000C3700B7
S205000C386F47
S205000C39F0C5
S205000C3ADFD5
S205000C3BE9CA
S205000C3CE3CF
S205000C3D169B
S205000C3E0DA3
S205000C3FF6B9
S205000C40931B
S205000C410DA0
S205000C4200AC
S205000C4300AB
S205000C446F3B
S205000C45F0B9
S205000C461F89
S205000C47F7B0
S205000C483373
S205000C4904A1
S205000C4AA400
S205000C4B01A2
S205000C4C6F33
S205000C4DF0B1
S205000C4E5F41
S205000C4FC7D8
S205000C50336B
S205000C510499
S205000C529408
S205000C53019A
S205000C546F2B
S205000C55F0A9
S205000C56DFB9
S205000C57C6D1
S205000C581383
S205000C590D88
S205000C5A0094
S205000C5B0093
S205000C5C93FF
S205000C5D0D84
S205000C5E0090
S205000C5F028D
S205000C606F1F
S205000C61F09D
S205000C621F6D
S205000C63E5A6
S205000C6493F7
S205000C650C7D
S205000C660088
S205000C670087
S205000C681373
S205000C690A7B
S205000C6A0084
S205000C6B0281
S205000C6C6F13
S205000C6DF091
S205000C6E5F21
S205000C6FF38C
S205000C70136B
S205000C710D70
S205000C72007C
S205000C73007B
S205000C746F0B
S205000C75F089
S205000C76DF99
S205000C77E394
S205000C781363
S205000C790174
S205000C7A0173
S205000C7BFF74
S205000C7C234F
S205000C7D244D
S205000C7E81EF
S205000C7F006F
S205000C80234B
S205000C81224B
S205000C8291DB
S205000C83006B
S205000C842347
S205000C852643
S205000C861157
S205000C870067
S205000C8893D3
S205000C890461
S205000C8A055F
S205000C8B0063
S205000C8C035F
S205000C8D451C
S205000C8E055B
S205000C8F005F
S205000C90134B
S205000C910459
S205000C92005C
S205000C93005B
S205000C9463F7
S205000C950C4D
S205000C960553
S205000C970057
S205000C98EF67
S205000C990055
S205000C9AC094
S205000C9B1A39
S205000C9C133F
S205000C9D044D
S205000C9E143C
S205000C9F004F
S205000CA0B39B
S205000CA187C6
S205000CA284C8
S205000CA3004B
S205000CA40347
S205000CA5C584
S205000CA60741
S205000CA70047
S205000CA8E363
S205000CA9182D
S205000CAA053F
S205000CABFE45
S205000CAC132F
S205000CAD053C
S205000CAEA0A0
S205000CAF003F
S205000CB0EF4F
S205000CB1003D
S205000CB240FC
S205000CB31922
S205000CB483B7
S205000CB52019
S205000CB6C177
S205000CB70037
S205000CB81323
S205000CB90530
S205000CBA0430
S205000CBB0033
S205000CBC032F
S205000CBD240D
S205000CBE81AF
S205000CBF002F
S205000CC083AB
S205000CC12409
S205000CC241EB
S205000CC3002B
S205000CC41317
S205000CC50128
S205000CC60127
S205000CC70126
S205000CC867BF
S205000CC980A5
S205000CCA0024
S205000CCB0023
S205000CCC6FB3
S205000CCD0021
S205000CCE0020
S205000CCF001F
S205000CD037E7
S205000CD177A6
S205000CD2100C
S205000CD31A01
S205000CD48397
S205000CD527F2
S205000CD60711
S205000CD70017
S205000CD81303
S205000CD90114
S205000CDA0113
S205000CDBFF14
S205000CDCB35F
S205000CDD957C
S205000CDEA56B
S205000CDF000F
S205000CE023EB
S205000CE126E7
S205000CE2F11B
S205000CE3000B
S205000CE48387
S205000CE526E3
S205000CE6C147
S205000CE70007
S205000CE89373
S205000CE907FE
S205000CEA10F4
S205000CEB0003
S205000CECB34F
S205000CED976A
S205000CEEA759
S205000CEF00FF
S205000CF0936B
S205000CF1C736
S205000CF2F705
S205000CF3FFFC
S205000CF4B347
S205000CF5F702
S205000CF6D721
S205000CF700F7
S205000CF823D3
S205000CF926CF
S205000CFAF103
S205000CFB00F3
S205000CFC836F
S205000CFD27CA
S205000CFEC12F
S205000CFF00EF
S205000D00B33A
S205000D01E507
S205000D02F5F6
S205000D0300EA
S205000D0423C6
S205000D0526C2
S205000D06B136
S205000D0700E6
S205000D088362
S205000D0927BD
S205000D0AC122
S205000D0B00E2
S205000D0C23BE
S205000D0D20C0
S205000D0EF7E8
S205000D0F00DE
S205000D1013CA
S205000D1101DB
S205000D1201DA
S205000D1301D9
S205000D146772
S205000D158058
S205000D1600D7
S205000D1700D6
S205000D18B71E
S205000D1917BD
S205000D1A10C3
S205000D1B1AB8
S205000D1C834E
S205000D1DA729
S205000D1E07C8
S205000D1F00CE
S205000D2013BA
S205000D2101CB
S205000D2201CA
S205000D23FFCB
S205000D2423A6
S205000D2526A2
S205000D26F1D6
S205000D2700C6
S205000D2803C2
S205000D29279D
S205000D2AC102
S205000D2B00C2
S205000D2C932E
S205000D2D07B9
S205000D2E10AF
S205000D2F00BE
S205000D30B30A
S205000D319725
S205000D32A714
S205000D3300BA
S205000D346356
S205000D359226
S205000D3605B2
S205000D3702B4
S205000D389322
S205000D39C7ED
S205000D3AF7BC
S205000D3BFFB3
S205000D3CB3FE
S205000D3DF7B9
S205000D3EE7C8
S205000D3F00AE
S205000D40238A
S205000D412686
S205000D42F1BA
S205000D4300AA
S205000D4403A6
S205000D452781
S205000D46C1E6
S205000D4700A6
S205000D48B7EE
S205000D49178D
S205000D4A1093
S205000D4B1A88
S205000D4C237E
S205000D4DA000
S205000D4EE7B8
S205000D4F009E
S205000D50138A
S205000D51019B
S205000D52019A
S205000D530199
S205000D546732
S205000D558018
S205000D560097
S205000D570096
S205000D58B3E2
S205000D59672D
S205000D5AF79C
S205000D5B0092
S205000D5C236E
S205000D5D266A
S205000D5EF19E
S205000D5F008E
S205000D60038A
S205000D612765
S205000D62C1CA
S205000D63008A
S205000D64B7D2
S205000D651771
S205000D661077
S205000D671A6C
S205000D682362
S205000D69A0E4
S205000D6AE79C
S205000D6B0082
S205000D6C136E
S205000D6D017F
S205000D6E017E
S205000D6F017D
S205000D706716
S205000D7180FC
S205000D72007B
S205000D73007A
S205000D74B7C2
S205000D751761
S205000D761067
S205000D771A5C
S205000D7883F2
S205000D79A7CD
S205000D7A87EC
S205000D7B0072
S205000D7C135E
S205000D7D016F
S205000D7E016E
S205000D7FFF6F
S205000D80234A
S205000D812646
S205000D82F17A
S205000D83006A
S205000D840366
S205000D852741
S205000D86C1A6
S205000D870066
S205000D8893D2
S205000D89075D
S205000D8A1053
S205000D8B0062
S205000D8CB3AE
S205000D8D97C9
S205000D8EA7B8
S205000D8F005E
S205000D9063FA
S205000D9192CA
S205000D920556
S205000D930258
S205000D9493C6
S205000D95C791
S205000D96F760
S205000D97FF57
S205000D98B3A2
S205000D99F75D
S205000D9AE76C
S205000D9B0052
S205000D9C232E
S205000D9D262A
S205000D9EF15E
S205000D9F004E
S205000DA0034A
S205000DA12725
S205000DA2C18A
S205000DA3004A
S205000DA4B792
S205000DA51731
S205000DA61037
S205000DA71A2C
S205000DA82322
S205000DA9A4A0
S205000DAAE75C
S205000DAB0042
S205000DAC132E
S205000DAD013F
S205000DAE013E
S205000DAF013D
S205000DB067D6
S205000DB180BC
S205000DB2003B
S205000DB3003A
S205000DB4B386
S205000DB567D1
S205000DB6F740
S205000DB70036
S205000DB82312
S205000DB9260E
S205000DBAF142
S205000DBB0032
S205000DBC032E
S205000DBD2709
S205000DBEC16E
S205000DBF002E
S205000DC0B776
S205000DC11715
S205000DC2101B
S205000DC31A10
S205000DC42306
S205000DC5A484
S205000DC6E740
S205000DC70026
S205000DC81312
S205000DC90123
S205000DCA0122
S205000DCB0121
S205000DCC67BA
S205000DCD80A0
S205000DCE001F
S205000DCF001E
S205000DD06FAE
S205000DD1001C
S205000DD2001B
S205000DD3001A
S205000DD46FAA
S205000DD50018
S205000DD60017
S205000DD70016
S205000DD86FA6
S205000DD90014
S205000DDA0013
S205000DDB0012
S205000DDC6FA2
S205000DDD0010
S205000DDE000F
S205000DDF000E
S205000DE06F9E
S205000DE1000C
S205000DE2000B
S205000DE3000A
S205000DE46F9A
S205000DE50008
S205000DE60007
S205000DE70006
S205000DE86F96
S205000DE90004
S205000DEA0003
S205000DEB0002
S205000DEC6F92
S205000DED0000
S205000DEE00FF
S205000DEF00FE
S205000DF06F8E
S205000DF100FC
S205000DF200FB
S205000DF300FA
S205000DF4B742
S205000DF57682
S205000DF610E7
S205000DF71ADC
S205000DF803F2
S205000DF9A74D
S205000DFA46AD
S205000DFB00F2
S205000DFCB73A
S205000DFD07E9
S205000DFE10DF
S205000DFF1AD4
S205000E0013D9
S205000E016784
S205000E0227C3
S205000E0300E9
S205000E0423C5
S205000E05A245
S205000E06E600
S205000E0700E5
S205000E0813D1
S205000E0907DC
S205000E0A30B2
S205000E0B08D9
S205000E0C23BD
S205000E0DA639
S205000E0EE7F7
S205000E0F00DD
S205000E1013C9
S205000E11D704
S205000E128555
S205000E1300D9
S205000E1423B5
S205000E15A235
S205000E16E7EF
S205000E1700D5
S205000E189341
S205000E19F5DE
S205000E1AF5DD
S205000E1B0FC2
S205000E1C23AD
S205000E1DA02F
S205000E1EB717
S205000E1F00CD
S205000E2013B9
S205000E2107C4
S205000E22705A
S205000E230ABF
S205000E2423A5
S205000E25A423
S205000E26E7DF
S205000E2700C5
S205000E2813B1
S205000E2907BC
S205000E2A3092
S205000E2B00C1
S205000E2C239D
S205000E2DA619
S205000E2EE7D7
S205000E2F00BD
S205000E3003B9
S205000E31A714
S205000E324773
S205000E3300B9
S205000E3413A5
S205000E357740
S205000E3607AF
S205000E370FA6
S205000E3813A1
S205000E39674C
S205000E3A278B
S205000E3B00B1
S205000E3C238D
S205000E3DA20D
S205000E3EE7C7
S205000E3F00AD
S205000E406745
S205000E41802B
S205000E4200AA
S205000E4300A9
S205000E443771
S205000E4507A0
S205000E461096
S205000E471A8B
S205000E488321
S205000E49277C
S205000E4A475B
S205000E4B01A0
S205000E4C930D
S205000E4DF7A8
S205000E4E0797
S205000E4F029B
S205000E50E3B9
S205000E518C0F
S205000E520793
S205000E53FE9B
S205000E542375
S205000E552077
S205000E56A7EF
S205000E570095
S205000E58672D
S205000E598013
S205000E5A0092
S205000E5B0091
S205000E5C3759
S205000E5D0788
S205000E5E107E
S205000E5F1A73
S205000E608309
S205000E612764
S205000E624743
S205000E630188
S205000E6493F5
S205000E65F790
S205000E66077F
S205000E670481
S205000E68E3A1
S205000E698CF7
S205000E6A077B
S205000E6BFE83
S205000E6C6719
S205000E6D80FF
S205000E6E007E
S205000E6F007D
S205000E701369
S205000E71017A
S205000E720179
S205000E73FF7A
S205000E742355
S205000E752651
S205000E761165
S205000E770075
S205000E78B7BD
S205000E7977FC
S205000E7A1062
S205000E7B1A57
S205000E7C630D
S205000E7D046B
S205000E7E0569
S205000E7F0469
S205000E801359
S205000E810764
S205000E82105A
S205000E830069
S205000E842345
S205000E85AABD
S205000E86E77F
S205000E870065
S205000E88372D
S205000E8977EC
S205000E8A1052
S205000E8B1A47
S205000E8C83DD
S205000E8D2738
S205000E8E4717
S205000E8F005D
S205000E9093C9
S205000E910556
S205000E92104A
S205000E930059
S205000E941345
S205000E950552
S205000E9680D6
S205000E970055
S205000E9893C1
S205000E99E76C
S205000E9A470B
S205000E9B0051
S205000E9C232D
S205000E9D222D
S205000E9EF757
S205000E9F004D
S205000EA0EF5D
S205000EA1F05B
S205000EA21F2B
S205000EA3E366
S205000EA493B5
S205000EA50542
S205000EA61036
S205000EA70045
S205000EA81331
S205000EA9053E
S205000EAA80C2
S205000EAB0041
S205000EACEF51
S205000EADF04F
S205000EAEDF5F
S205000EAFE657
S205000EB083B9
S205000EB1201B
S205000EB2C179
S205000EB30039
S205000EB493A5
S205000EB50532
S205000EB61026
S205000EB70035
S205000EB81321
S205000EB9052E
S205000EBA80B2
S205000EBB0031
S205000EBC131D
S205000EBD012E
S205000EBE012D
S205000EBF012C
S205000EC06FBD
S205000EC1F03B
S205000EC25FCB
S205000EC3EB3E
S205000EC42305
S205000EC5AA7D
S205000EC6071F
S205000EC70025
S205000EC86FB5
S205000EC9F033
S205000ECA1F03
S205000ECBFC25
S205000ECC130D
S205000ECD011E
S205000ECE011D
S205000ECFFF1E
S205000ED023F9
S205000ED126F5
S205000ED21109
S205000ED30019
S205000ED4EF29
S205000ED5F027
S205000ED6DF37
S205000ED7F91C
S205000ED86FA5
S205000ED90013
S205000EDA0012
S205000EDB0011
S20510000048A2
S2051000016584
S2051000026C7C
S2051000036C7B
S2051000046F77
S20510000520C5
S205100006578D
S2051000076F74
S2051000087270
S2051000096C75
S20510000A647C
S20510000B21BE
S20510000C21BD
S20510000D21BC
S20510000E21BB
S20510000F21BA
S20510001000DA
S20510001100D9
S20510001200D8
S20510001300D7
S205100014498D
S2051000156C69
S2051000166C68
S205100017656E
S205100018676B
S2051000196170
S20510001A6C64
S20510001B20AF
S20510001C6965
S20510001D6E5F
S20510001E7359
S20510001F7457
S2051000207258
S2051000217554
S2051000226365
S2051000237453
S205100024695D
S2051000256F56
S2051000266E56
S20510002720A3
S205100028655D
S2051000296E53
S20510002A635D
S20510002B6F50
S20510002C7549
S20510002D6E4F
S20510002E7448
S20510002F6556
S2051000307248
S2051000316554
S2051000326454
S2051000332097
S2051000346155
S2051000357441
S2051000362094
S2051000376152
S205100038644E
S205100039644D
S20510003A723E
S20510003B654A
S20510003C733B
S20510003D733A
S20510003E208C
S20510003F307B
S2051000407832
S2051000412584
S2051000423078
S205100043386F
S205100044584E
S2051000453A6B
S2051000462084
S205100047257E
S205100048584A
S2051000490A97
S20510004A00A0
S20510004B009F
S20510004C2876
S20510004D6E2F
S20510004E7527
S20510004F6C2F
S2051000506C2E
S2051000512970
S2051000520098
S2051000530097
S2051000546036
S2051000550A8B
S2051000560094
S2051000570093
S205100058C0D2
S2051000590889
S20510005A0090
S20510005B008F
S20510005CC0CE
S20510005D0885
S20510005E008C
S20510005F008B
S205100060C0CA
S2051000610881
S2051000620088
S2051000630087
S205100064C0C6
S205100065087D
S2051000660084
S2051000670083
S205100068C0C2
S2051000690879
S20510006A0080
S20510006B007F
S20510006CC0BE
S20510006D0875
S20510006E007C
S20510006F007B
S205100070C0BA
S2051000710871
S2051000720078
S2051000730077
S205100074C0B6
S205100075086D
S2051000760074
S2051000770073
S205100078C0B2
S2051000790869
S20510007A0070
S20510007B006F
S20510007CC0AE
S20510007D0865
S20510007E006C
S20510007F006B
S2051000802C3E
S2051000810A5F
S2051000820068
S2051000830067
S205100084085E
S2051000850A5B
S2051000860064
S2051000870063
S205100088C0A2
S2051000890859
S20510008A0060
S20510008B005F
S20510008CC09E
S20510008D0855
S20510008E005C
S20510008F005B
S205100090C09A
S2051000910851
S2051000920058
S2051000930057
S205100094C096
S205100095084D
S2051000960054
S2051000970053
S205100098C092
S2051000990849
S20510009A0050
S20510009B004F
S20510009CC08E
S20510009D0845
S20510009E004C
S20510009F004B
S2051000A0C08A
S2051000A10841
S2051000A20048
S2051000A30047
S2051000A4C086
S2051000A5083D
S2051000A60044
S2051000A70043
S2051000A8C082
S2051000A90839
S2051000AA0040
S2051000AB003F
S2051000ACC07E
S2051000AD0835
S2051000AE003C
S2051000AF003B
S2051000B0C07A
S2051000B10831
S2051000B20038
S2051000B30037
S2051000B4C076
S2051000B5082D
S2051000B60034
S2051000B70033
S2051000B8C072
S2051000B90829
S2051000BA0030
S2051000BB002F
S2051000BCC06E
S2051000BD0825
S2051000BE002C
S2051000BF002B
S2051000C0C06A
S2051000C10821
S2051000C20028
S2051000C30027
S2051000C4C066
S2051000C5081D
S2051000C60024
S2051000C70023
S2051000C8E43E
S2051000C90918
S2051000CA0020
S2051000CB001F
S2051000CCC05E
S2051000CD0815
S2051000CE001C
S2051000CF001B
S2051000D0C05A
S2051000D10811
S2051000D20018
S2051000D30017
S2051000D4C056
S2051000D5090C
S2051000D60014
S2051000D70013
S2051000D80012
S2051000D90110
S2051000DA020E
S2051000DB020D
S2051000DC030B
S2051000DD030A
S2051000DE0408
S2051000DF0506
S2051000E00505
S2051000E10603
S2051000E20701
S2051000E30700
S2051000E408FE
S2051000E508FD
S2051000E609FB
S2051000E70003
S80400008C6F
